S015000043686561705365632076302E312E73726563EE
S11300000C942A000C9447000C9447000C9447006D
S11300100C9447000C9447000C9447000C94470040
S11300200C9447000C9447000C9447000C9429044A
S11300300C9447000C9447000C9447000C94470020
S11300400C9448010C9447000C9447000C9447000E
S11300500C94470011241FBECFE5D8E0DEBFCDBF0E
S113006012E0A0E6B0E0E4EAFBE102C005900D92E4
S1130070A63AB107D9F713E0A6EAB2E001C01D928F
S1130080A93FB107E1F70E9437030C94D00D0C94FB
S11300900000929A00C092980895CF93662311F0BD
S11300A0AE9A01C0AE98AF988B9A8C9A8D9A8E9A1C
S11300B0969895989498939888230CF4969AC82FB8
S11300C086FD959AC5FD949AC4FD939A0E944900B1
S11300D09698959894989398C3FD969AC2FD959A8C
S11300E0C1FD949AC0FD939A0E944900939A949AF0
S11300F0959A969ACF910895882311F0AE9A01C0EB
S1130100AE98AF9A8B988C988D988E98929A00C0DE
S1130110839902C080E001C080E18499806285995E
S1130120806486998068929800C0929A00C08399EE
S113013081608499826085998460869988609298A8
S1130140089580E00E947C008823DCF385E090E041
S11301500197F1F780E00E947C000895CF93C82FA7
S11301600E94A1008C2F60E00E944D00CF91089561
S1130170CF93C82F0E94A1008C2F61E00E944D00F4
S1130180CF910895662321F480580E94AE0008950B
S113019080540E94AE0008950E94A10090E008954A
S11301A081E00E94AE00089582E00E94AE000895AE
S11301B0CF93C82F0E94A100CA3049F4803410F4B0
S11301C080E401C080E080580E94AE0004C08C2FFF
S11301D061E00E944D00CF910895CF93DF93EC012D
S11301E08881882331F021960E94D8008991882340
S11301F0D9F7DF91CF910895CF93DF93EC01FC0100
S11302008491882341F021960E94D800FE01219612
S113021084918823C9F7DF91CF9108951F93CF93D9
S1130220DF93182FA69AA79A8A9A8B9A8C9A8D9AFA
S11302308E9A80E49CE90197F1F7949A939A0E942C
S1130240490080EC90E30197F1F70E944900C0EA6D
S1130250D0E0CE010197F1F70E944900CE01019749
S1130260F1F793980E9449002197F1F788E20E94E0
S1130270AE0088E00E94AE000E94D00086E00E949A
S1130280AE00812F0E94AE00DF91CF911F9108959F
S11302901F920F920FB60F921124EF92FF920F93B9
S11302A01F932F933F934F935F936F937F938F93FA
S11302B09F93AF93BF93CF93DF93EF93FF9365B176
S11302C070E080E090E00E94AA0920E030E040EA7B
S11302D05CE30E940F0AC62FD72F182F092F862FF1
S11302E09D2FA12FB02F8093A6029093A702A093D5
S11302F0A802B093A902E0909600F0909700F7014D
S1130300EE0FFF1FEE0FFF1FEE0FFF1FEE19FF0989
S1130310E655FD4FF182E08282839383A483B58303
S1130320BC01CD012AE939E941E850E40E940B0AF5
S11303301816F4F48C2F9D2FA12FB02FBC01CD01E2
S113034023E333E343E950E40E94A609882384F4B9
S1130350F701EE0FFF1FEE0FFF1FEE0FFF1FEE1949
S1130360FF09E655FD4F86818160897F86833BC006
S11303708C2F9D2FA12FB02FBC01CD0120E030E0A8
S113038040E850E40E94A6098823F4F48C2F9D2FA2
S1130390A12FB02FBC01CD0120E030E040E450E4B7
S11303A00E940B0A181684F4F701EE0FFF1FEE0FDC
S11303B0FF1FEE0FFF1FEE19FF09E655FD4F868163
S11303C0887F826086830FC0F701EE0FFF1FEE0F58
S11303D0FF1FEE0FFF1FEE19FF09E655FD4F868143
S11303E08C7F8460868380919600909197008830FA
S11303F0910534F40196909397008093960006C07B
S113040081E090E0909397008093960080B7886095
S113041080BF86B116B887B18332D9F0843238F4FC
S1130420813289F0823290F4803209F509C0853234
S1130430B1F0853288F08632A9F08732C1F415C054
S113044081E287B914C082E287B911C083E287B917
S11304500EC084E287B90BC085E287B908C086E282
S113046087B905C087E287B902C080E287B986B13F
S1130470866086B980B7886080BF379A339A369A87
S113048080E090E0DC018093A6029093A702A09301
S1130490A802B093A902FF91EF91DF91CF91BF9190
S11304A0AF919F918F917F916F915F914F913F9108
S11304B02F911F910F91FF90EF900F900FBE0F900F
S11304C01F9018958A30910509F049C080E090E0AA
S11304D040E050E0E7EBF2E0BF01685C7F4F20E0D2
S11304E030E0A081A0FD0196A2FF02C02F5F3F4F24
S11304F0A1FF02C04F5F5F4F3796E617F70789F7F2
S11305009093AB038093AA033093A9032093A80389
S11305105093A7034093A6038830910531F480914A
S113052098038160897F809398038091A8039091B8
S1130530A903181619062CF48091980384608093FB
S113054098038091A6039091A70318161906DCF46A
S11305508091980382608093980384E00895FC015D
S1130560EE0FFF1FEE0FFF1FEE0FFF1FE81BF90B2F
S1130570E655FD4F868180FD08C082FD08C081FDDF
S113058008C084E0089584E0089581E0089584E03B
S1130590089582E0089583B7856083BF89B7816039
S11305A089BF12BE1092AD031092AC031092B10336
S11305B01092B0031092AF031092AE031092B303E3
S11305C01092B2031092B5031092B4031092B603C2
S11305D01092B7031092BA031092B80381E080938B
S11305E0B9031092F4031092F3031092F2031092E1
S11305F09B0310929A03A7E8B3E0E0E6F0E085E0FD
S113060001900D928150E1F71092E20210923203B0
S11306108F9AA09AA19A87B187B986B1866086B964
S113062087B1807887B987B117B880B7886080BFF1
S11306303D9A379A339A369A78940895809198031C
S113064080FF02C0A99A03C085B38C7F85BB8091CB
S1130650980382FF02C0A89A01C0A89880919803C9
S113066081FF02C0979A089582B312BA089581E077
S11306708093EE031092EF038093F0031092F6033D
S11306801092F503809198038160809398038FE919
S113069096E8A1E081509040A040E1F700C000003E
S11306A08CE00E940E018FE996E8A1E08150904011
S11306B0A040E1F700C000008FE996E8A1E0815076
S11306C09040A040E1F700C000000E94D0008FE9F4
S11306D096E8A1E081509040A040E1F700C00000FE
S11306E080E580930A0380935A0300D085E690E066
S11306F0ADB7BEB712969C938E9311970E94D805FE
S11307000F900F900E94CB0210929903E7E8F3E157
S11307103197F1F700C000008AE090E00E94620285
S11307200E941E030E948F09F1CF623019F06430D9
S113073009F046C0843031F1853040F48230B1F0A4
S11307408330D0F4813009F081C00AC0863031F1A1
S11307508630F0F0873041F1883009F077C02AC044
S11307608091990381608093990370C0809199036B
S11307708260809399036AC0809199038460809316
S1130780990364C0809199038860809399035EC043
S11307908091990380618093990358C08091990353
S11307A080628093990352C08091990380648093FE
S11307B099034CC08091990380688093990346C043
S11307C0613009F043C0843021F1853038F482303F
S11307D0A1F08330C0F48130C9F509C0863029F115
S11307E08630E8F0873039F1883081F52AC080916D
S11307F099038E7F8093990329C0809199038D7FFB
S11308008093990323C0809199038B7F80939903EC
S11308101DC080919903877F8093990317C08091AD
S113082099038F7E8093990311C0809199038F7DE2
S1130830809399030BC0809199038F7B80939903D4
S113084005C0809199038F77809399038FEF90E08F
S113085008951F920F920FB60F9211242F938F9326
S11308609F938091AC039091AD0301969093AD0357
S11308708093AC038B37910554F01092AD03109222
S1130880AC039091B80381E089278093B8038091E9
S1130890AE039091AF0301969093AF038093AE03A0
S11308A08430910524F48091B903882339F410929B
S11308B0AF031092AE0381E08093B9038091B40337
S11308C09091B50301969093B5038093B403873058
S11308D091053CF01092B5031092B40381E080932B
S11308E0B6038091B0039091B10301969093B10344
S11308F08093B0038B3791053CF01092B1031092B2
S1130900B00381E08093BA038091B2039091B30362
S113091001969093B3038093B20323E0893E920738
S11309203CF01092B3031092B20381E08093B703BA
S11309309F918F912F910F900FBE0F901F9018953C
S113094008958091B903882309F446C01092AF0337
S11309501092AE0388B38F6088BB87E893E1019758
S1130960F1F700C0000020E030E060E470E0E22F26
S113097097B3907897BB97B3AB01022E02C05595FD
S113098047950A94E2F7492B47BBA7E8B3E11197CF
S1130990F1F700C00000B39B0CC0B29B06C0B19B32
S11309A006C0B09912C083E005C081E003C082E0B4
S11309B001C080E0A7E8B3E11197F1F700C000009F
S11309C0982F990F890F8E0F08952F5F3F4F233073
S11309D0310569F68FEF08958FEF08950E94A10401
S11309E08F3F09F446C08F5F8F3F09F442C01092D5
S11309F0B7031092B903883069F41092EF03EFEE55
S1130A00F3E092919F5F9083943064F191E090932E
S1130A10EE0328C0823069F41092EF03EFEEF3E0A6
S1130A209291915090831916ECF093E09093EE0319
S1130A3019C0843059F48091EF0381508093EF03FF
S1130A401816BCF088E08093EF030895863051F4C3
S1130A509091EF039F5F9093EF0399301CF091E026
S1130A609093EF03863029F01092EF0381E0809396
S1130A70F0030895AF92BF92CF92DF92EF92FF926C
S1130A800F931F93CF93DF936C015B017A018A016B
S1130A90552314F40F5F1F4F159507951016110673
S1130AA0ECF5C0E0D0E080E10E94AE002196C017D2
S1130AB0D107C9F7C6010E94ED008AE00E94D80060
S1130AC0C0E0D0E080E10E94AE002196C017D107BB
S1130AD0C9F7C5010E94ED001E141F0494F4C0E080
S1130AE0D0E08CE10E94AE008FEF94E3ACE0815043
S1130AF09040A040E1F700C000002196CE15DF052C
S1130B0081F70E94D000DF91CF911F910F91FF9048
S1130B10EF90DF90CF90BF90AF900895C6010E94F0
S1130B20ED008AE00E94D800D4CF0F931F93CF9397
S1130B30DF93EC01E881F0E0309769F1219605E05C
S1130B4015E120E030E0B901A801440F551F661FEC
S1130B50771F440F551F661F771F440F551F661FCD
S1130B60771F440F551F661F771F440F551F661FBD
S1130B70771FCF01AA2797FDA095BA2F840F951F41
S1130B80A61FB71F080F191F2A1F3B1FE991F0E08A
S1130B903097C9F604C005E015E120E030E0602F8D
S1130BA0712F822F932FDF91CF911F910F91089571
S1130BB00F931F93CF93DF93CDB7DEB7C156D040C9
S1130BC00FB6F894DEBF0FBECDBFFE01E859FF4F4C
S1130BD0619171918E010B5C1F4F89E2D8011D92C6
S1130BE08A95E9F7C8014E2F5F2F0E94FF0AC801BA
S1130BF00E949505DC01CB0180939C0390939D0397
S1130C00A0939E03B0939F038AE090E09A83898324
S1130C10C801BE016F5F7F4F0E94C30ABC010097E9
S1130C2009F485C0EAE0F3E0DF010D900020E9F764
S1130C30CD0101978E1B9F0BDE015C96FD01019097
S1130C400020E9F73197EA1BFB0B8E179F0709F485
S1130C506EC0CD010E94D10A06EB13E080E090E063
S1130C60BE016F5F7F4F0E94C30ABC01E82FF72FBC
S1130C70DF010D900020E9F71197AE1BBF0B1A1688
S1130C801B062CF4CE0103960E94D10A07C0F8017A
S1130C908081882319F46115710501F780919C0303
S1130CA090919D03A0919E03B0919F038093A00314
S1130CB09093A103A093A203B093A3038AE093E0CB
S1130CC0BE01645E7F4F0E94C80A282F392F211568
S1130CD0310561F48AE593E0BE016D5F7F4F0E94A8
S1130CE0C80A282F392F2115310509F18AE093E02C
S1130CF0BE01645E7F4F0E94D10A8AE593E0BE0183
S1130D006D5F7F4F0E94D10A0E94D000CE014C96A5
S1130D100E94ED008AE00E94D800CE0103960E9452
S1130D20ED0087EA91E60197F1F700C00000CF5982
S1130D30DF4F0FB6F894DEBF0FBECDBFDF91CF916A
S1130D401F910F910895EF92FF920F931F93CF93EA
S1130D508C017B01C42F8AE093E0B8010E94C80A89
S1130D60282F392F2115310559F48AE593E0B7016D
S1130D700E94C80A282F392F2115310509F458C0BB
S1130D800E94D000C8010E94ED008AE00E94D800B1
S1130D90C7010E94ED00C33021F1C43028F4C130F2
S1130DA079F0C230A0F407C0C53079F1C53018F12C
S1130DB0C630F1F534C080E18A95F1F700C038C03F
S1130DC0A7EAB1E61197F1F700C0000031C08FE344
S1130DD09DE0A3E081509040A040E1F700C00000F6
S1130DE027C08FEB97E2A9E081509040A040E1F743
S1130DF000C000001DC08FE392E4AFE0815090403A
S1130E00A040E1F700C0000013C08FE794E8AEE112
S1130E1081509040A040E1F700C0000009C08FEF6E
S1130E2098E0ADE381509040A040E1F700C000009D
S1130E30CF911F910F91FF90EF900895CF93DF937F
S1130E4087EA91E60197F1F700C000008091EE0374
S1130E50823009F48EC0833024F4813009F05BC2FF
S1130E6007C0833009F473C1883009F054C293C1B8
S1130E708091EF03882309F04EC28091980383FF89
S1130E800EC000D088E990E0ADB7BEB712969C932F
S1130E908E9311970E94D8050F900F903CC281FF4A
S1130EA021C000D000D000D0EDB7FEB7319680EC61
S1130EB090E0ADB7BEB712969C938E931197809134
S1130EC0A6039091A70393838283158214820E94C0
S1130ED0D805EDB7FEB736960FB6F894FEBF0FBE31
S1130EE0EDBF19C282FF25C000D000D000D0EDB7FD
S1130EF0FEB731968BEE90E0ADB7BEB712969C93D9
S1130F008E9311978091A6039091A7039383828374
S1130F108091A8039091A903958384830E94D805A6
S1130F20EDB7FEB736960FB6F894FEBF0FBEEDBF11
S1130F30F2C180FFF0C18091B803882371F000D022
S1130F4084E191E0ADB7BEB712969C938E9311974E
S1130F500E94D8050F900F90DEC100D08AE391E083
S1130F60EDB7FEB7928381830E94D8050F900F904E
S1130F70D2C18091F003882309F441C08091EF032A
S1130F808823E9F50E94A1048F5F8F3FD1F010926E
S1130F90B903843051F488E08093EF031092F60390
S1130FA01092F5031092F003B6C1863051F481E03B
S1130FB08093EF031092F6031092F5031092F0035E
S1130FC0AAC18091B803882371F000D082E691E031
S1130FD0ADB7BEB712969C938E9311970E94D80515
S1130FE00F900F9098C100D089E891E0EDB7FEB75B
S1130FF0928381830E94D8050F900F908CC18091B9
S1131000EF03992787FD90950E94620280FF2FC00D
S11310108091EF03992787FD90952DB73EB728500F
S113102030400FB6F8943EBF0FBE2DBFEDB7FEB7EC
S1131030319622EB31E0ADB7BEB712963C932E93B6
S113104011972091EE03332727FD309533832283B4
S113105095838483978386830E94D805EDB7FEB772
S113106038960FB6F894FEBF0FBEEDBF54C1809101
S1131070EF03992787FD90950E94620281FF2FC09C
S11310808091EF03992787FD90952DB73EB728509F
S113109030400FB6F8943EBF0FBE2DBFEDB7FEB77C
S11310A0319628ED31E0ADB7BEB712963C932E933E
S11310B011972091EE03332727FD30953383228344
S11310C095838483978386830E94D805EDB7FEB702
S11310D038960FB6F894FEBF0FBEEDBF1CC18091C9
S11310E0EF03992787FD90950E94620282FF13C146
S11310F08091EF03992787FD90952DB73EB728502F
S113110030400FB6F8943EBF0FBE2DBFEDB7FEB70B
S1131110319620E032E0ADB7BEB712963C932E93E1
S113112011972091EE03332727FD309533832283D3
S113113095838483978386830E94D805EDB7FEB791
S113114038960FB6F894FEBF0FBEEDBFE4C0809191
S1131150F2038823A9F48FE996E8A1E08150904036
S1131160A040E1F700C0000088E790E09093B1034D
S11311708093B0031092BA0381E08093F203CBC052
S11311800E94A1048F3F09F4C6C01092B90381E004
S11311908093F203C0C080919A03882309F4BBC0F2
S11311A0A2E3B3E0E9E2F2E084E101900D92815020
S11311B0E1F72091A4033091A50312161306B4F4A9
S11311C0C2E8D3E0ACE7B2E0FD01319780E090E003
S11311D050E34991403311F4508301C040831D9280
S11311E00196319682179307A4F302C010927B02F2
S11311F082E792E062E373E040E00E94A3060E946B
S1131200A1048F3F09F487C01092B903982F9F5F00
S11312109A3029F58091A4039091A503FC01EE571F
S1131220FC4F108201979093A5038093A403181692
S1131230190624F01092A5031092A403E091A403CC
S1131240F091A503EE57FC4F10828FE39DE0A3E0DD
S113125081509040A040E1F700C000005CC09C3089
S113126009F04AC082E893E0BC016B5F7F4F0E94A3
S1131270C80A282F392F21153105D9F41092A50356
S11312801092A40310929A031092820300D08DE36B
S113129092E0ADB7BEB712969C938E9311970E94BD
S11312A0D80581E08093EE031092EF030F900F9026
S11312B032C01092A5031092A40310929A031092C4
S11312C08203109283031092840310928503109278
S11312D086031092870300D08CE592E0EDB7FEB749
S11312E0928381830E94D8051092EF0381E080935A
S11312F0EE030F900F900FC02091A4033091A5032B
S1131300F901EE57FC4F8F5C80832F5F3F4F309382
S1131310A5032093A40380E0DF91CF9108950E9458
S1131320A1048F3F71F01092B9038B3051F481E026
S113133080939A031092A5031092A40388E08093EB
S1131340EE030E94EE040E941E07089540D008F4A4
S113135081E00895E89409C097FB3EF49095809548
S1131360709561957F4F8F4F9F4F9923A9F0F92F67
S113137096E9BB279395F695879577956795B795E5
S1131380F111F8CFFAF4BB0F11F460FF1BC06F5FCB
S11313907F4F8F4F9F4F16C0882311F096E911C0DD
S11313A0772321F09EE8872F762F05C0662371F0FE
S11313B096E8862F70E060E02AF09A95660F771F12
S11313C0881FDAF7880F9695879597F90895990FEE
S11313D00008550FAA0BE0E8FEEF16161706E807FB
S11313E0F907C0F012161306E407F50798F0621B1C
S11313F0730B840B950B39F40A2661F0232B242BF1
S1131400252B21F408950A2609F4A140A6958FEF0F
S1131410811D811D0895DBDF08F48FEF08950BD043
S113142078C069D028F06ED018F0952309F05AC01E
S11314305FC01124A2C07ED0A0F3959FD1F3950F75
S113144050E0551F629FF001729FBB27F00DB11D44
S1131450639FAA27F00DB11DAA1F649F6627B00DD4
S1131460A11D661F829F2227B00DA11D621F739FBD
S1131470B00DA11D621F839FA00D611D221F749FCB
S11314803327A00D611D231F849F600D211D822F12
S1131490762F6A2F11249F5750408AF0E1F0882359
S11314A04AF0EE0FFF1FBB1F661F771F881F915066
S11314B05040A9F79E3F510570F014C05EC05F3FD5
S11314C0ECF3983EDCF3869577956795B795F79599
S11314D0E7959F5FC1F7FE2B880F911D9695879521
S11314E097F9089597F99F6780E870E060E00895A0
S11314F09FEF80EC089500240A9416161706180628
S11315000906089500240A94121613061406050603
S11315100895092E0394000C11F4882352F0BB0F94
S113152040F4BF2B11F460FF04C06F5F7F4F8F4FF7
S11315309F4F089557FD9058440F551F59F05F3F32
S113154071F04795880F97FB991F61F09F3F79F0E1
S113155087950895121613061406551FF2CF469563
S1131560F1DF08C0161617061806991FF1CF8695E5
S11315707105610508940895E894BB2766277727C9
S1131580CB0197F9089547EF53E00E94D80A0895D4
S1131590FB01DC018D91019080190110D9F3990BA5
S11315A00895FB01DC0101900D920020E1F70895FC
S11315B0FA01A191B081009719F41097E1F0CD01DF
S11315C0DC01CD010D90002011F4C00113C0FB011A
S11315D02191222319F02015D9F7F3CFFB01219192
S11315E0201519F41E92119606C02223C1F70D90FE
S11315F00020A1F7D001FA01A193B0830895AEE0D1
S1131600B0E0E5E0FBE00C94A70D8C0186E08C8350
S11316101A8309838FEF9FE79E838D83CE01019602
S11316200E941B0BEF81F885E00FF11F10822E96AC
S1131630E4E00C94C30DADE0B0E0E1E2FBE00C9417
S1131640990D3C017D876C875A01FC011782168233
S1131650838181FFC8C12E010894411C511CF301F0
S11316609381EC85FD8593FD859193FF8191FD87A1
S1131670EC87882309F4B3C1853241F493FD859145
S113168093FF8191FD87EC87853229F490E0B301C3
S11316900E940F0DE4CFFF24EE2410E01032B0F4CA
S11316A08B3269F08C3228F4803251F0833271F439
S11316B00BC08D3239F0803349F411602CC01260B4
S11316C0146029C0186027C0106125C017FD2EC002
S11316D0282F20532A3098F416FF08C08F2D880F26
S11316E0F82EFF0CFF0CF80EF20E15C08E2D880F8D
S11316F0E82EEE0CEE0CE80EE20E10620CC08E32F8
S113170021F416FD6CC1106406C08C3611F4106807
S113171002C0883659F4EC85FD8593FD859193FFCD
S11317208191FD87EC87882309F0B8CF982F9554D1
S1131730933018F09052933038F424E030E0A20E45
S1131740B31E3FE339830FC0833631F0833781F012
S1131750833509F05AC022C0F5018081898322E0D3
S113176030E0A20EB31E21E0C22ED12C420114C0DF
S113177092E0292E312C2A0C3B1CF50180809180AB
S113178016FF03C06F2D70E002C06FEF7FEFC4013E
S11317900E94040D6C0151011F7715C082E0282EB0
S11317A0312C2A0C3B1CF5018080918016FF03C06C
S11317B06F2D70E002C06FEF7FEFC4010E94F90C3F
S11317C06C011068510113FD1CC006C080E290E05A
S11317D0B3010E940F0DEA948E2D90E0C816D9062D
S11317E0A8F30FC0F40117FD859117FF81914F01F4
S11317F090E0B3010E940F0DE110EA940894C1082F
S1131800D108C114D10471F7E7C0843611F08936C8
S113181051F5F50117FF07C080819181A281B38141
S113182024E030E008C080819181AA2797FDA0952B
S1131830BA2F22E030E0A20EB31E012F0F76B7FFBD
S113184008C0B095A095909581959F4FAF4FBF4F1D
S11318500068BC01CD01A2012AE030E00E943B0DEA
S1131860D82ED4183FC0853721F41F7E2AE030E0FB
S113187020C0197F8F36A9F0803720F4883509F00D
S1131880AEC00BC0803721F0883709F0A8C001C072
S1131890106114FF09C0146007C014FF08C016606B
S11318A006C028E030E005C020E130E002C020E1BD
S11318B032E0F50117FF07C0608171818281938155
S11318C044E050E006C06081718180E090E042E035
S11318D050E0A40EB51EA2010E943B0DD82ED418D0
S11318E0012F0F7706FF09C00E7FDF1430F404FFC9
S11318F006C002FD04C00F7E02C01D2D01C01F2DB5
S1131900802F90E004FF0CC0FE01ED0DF11D20813D
S1131910203311F4097E09C002FF06C01E5F05C012
S113192086789070009709F01F5F802E992403FD3C
S113193012C000FF0DC0FD2C1E1550F4FE0CF11A50
S11319401E2D06C080E290E0B3010E940F0D1F5FC0
S11319501E15C0F304C01E1510F4E11A01C0EE24D4
S113196084FE0FC080E390E0B3010E940F0D82FE5D
S11319701FC081FE03C088E590E010C088E790E0B6
S11319800DC0C40186789070009791F081FC02C06C
S113199080E201C08BE207FD8DE290E0B3010E947A
S11319A00F0D06C080E390E0B3010E940F0DFA947E
S11319B0DF14C0F3DA94F201ED0DF11D808190E0A3
S11319C0B3010E940F0DDD20A9F706C080E290E06C
S11319D0B3010E940F0DEA94EE20C1F740CEF3014B
S11319E08681978102C08FEF9FEF2D96E2E10C94E0
S11319F0B50DFC010590615070400110D8F7809539
S1131A0090958E0F9F1F0895FC01615070400190C6
S1131A100110D8F7809590958E0F9F1F08950F930E
S1131A201F93CF93DF938C01EB018B8181FF1BC04C
S1131A3082FF0DC02E813F818C819D81281739073B
S1131A4064F4E881F9810193F983E88306C0E885A9
S1131A50F985802F0995009731F48E819F81019635
S1131A609F838E8302C00FEF1FEFC801DF91CF91D8
S1131A701F910F910895FA01AA27283051F12031BE
S1131A8081F1E8946F936E7F6E5F7F4F8F4F9F4F0E
S1131A90AF4FB1E03ED0B4E03CD0670F781F891F50
S1131AA09A1FA11D680F791F8A1F911DA11D6A0F1E
S1131AB0711D811D911DA11D20D009F468943F91D1
S1131AC02AE0269F11243019305D3193DEF6CF01D0
S1131AD00895462F4770405D4193B3E00FD0C9F796
S1131AE0F6CF462F4F70405D4A3318F0495D31FD03
S1131AF04052419302D0A9F7EACFB4E0A695979556
S1131B00879577956795BA95C9F70097610571052B
S1131B1008959B01AC010A2E069457954795379575
S1131B202795BA95C9F7620F731F841F951FA01DCF
S1131B3008952F923F924F925F926F927F928F926D
S1131B409F92AF92BF92CF92DF92EF92FF920F9348
S1131B501F93CF93DF93CDB7DEB7CA1BDB0B0FB652
S1131B60F894DEBF0FBECDBF09942A88398848880F
S1131B705F846E847D848C849B84AA84B984C884A5
S1131B80DF80EE80FD800C811B81AA81B981CE0F9C
S1131B90D11D0FB6F894DEBF0FBECDBFED01089581
S1071BA0F894FFCFE3
S1131BA431323334007C30312D3E30307C20535973
S1131BB45354454D204F4B0A2020323031322D31BD
S1131BC4322D30382031373A3139009A998940031B
S1131BD400CE56672BFF01007C30312D3E30307C23
S1131BE42044656163746976617465640A202032F3
S1131BF43031322D31322D30382031373A313900F9
S1131C047C30312D3E30307C20414C41524D205BA0
S1131C14365D2D3E0A416C61726D733A256420531E
S1131C2461626F746167653A2564007C30312D3ECE
S1131C3430307C205341424F54414745200A416C83
S1131C4461726D733A2564205361626F74616765D0
S1131C543A2564007C30312D3E30307C2053595376
S1131C6454454D204F4B0A2020323031322D31322D
S1131C742D30382031373A3139007C30312D3E3023
S1131C84307C2053595354454D204F4B0A3C2D204E
S1131C945B42544E345D20205B42544E365D202D0D
S1131CA43E007C30322D3E30307C5A4F4E4520531A
S1131CB454415455530A2020323031322D31322DBF
S1131CC430382031373A3139007C30322D3E3030CF
S1131CD47C5A4F4E45205354415455530A3C2D20AD
S1131CE45B42544E345D20205B42544E365D202DBD
S1131CF43E007C3025642D3E3025647C5A4F4E458D
S1131D04205354415455530A20202020205A6F6EE6
S1131D1465202564204F4B007C3025642D3E3025FE
S1131D24647C5A4F4E45205354415455530A202041
S1131D3420205A6F6E6520256420414C41524D0089
S1131D447C3025642D3E3025647C5A4F4E45205307
S1131D5454415455530A20205A6F6E65202564203B
S1131D645341424F54414745005B2A5D2D44454C41
S1131D742020205B235D52455455524E00436F721C
S1131D84726563742050617373776F72640A4C6F65
S1131D946767696E6720696E2E2E2E0057726F6E08
S1131DA4672050617373776F72640A536F72727928
S1131DB4210050617373776F72643A00000000006D
S1131DC4000000000000006162636465666768697E
S1131DD46A6B6C6D6E6F70717273747576777879E3
S1091DE47A2E2F5C2D0095
S9030000FC
