:100000000C942A000C943C000C943C000C943C0092
:100010000C943C000C943C000C943C000C943C0070
:100020000C943C000C943C000C943C000C943C0060
:100030000C943C000C943C000C943C000C943C0050
:100040000C943C000C943C000C943C000C943C0040
:100050000C943C0011241FBECFE5D8E0DEBFCDBF1D
:1000600010E0A0E6B0E001C01D92AD37B107E1F7A6
:100070000E944E000C94BC010C9400001092710080
:1000800010926F00109272008F9AA09A86B18360CE
:1000900086B93E9A3D9A379A369A0895EF92FF9222
:1000A0000F931F930E943E0065B170E080E090E0E6
:1000B0000E94A30020E030E040EA5CE30E940801D7
:1000C000E62EF72E082F192F862F9F2DA02FB12F48
:1000D0008093790090937A00A0937B00B0937C008A
:1000E0006E2D7F2D802F912F20E030E040E850E4EE
:1000F0000E940401181624F4A89A82B312BA1DC0F3
:100100006E2D7F2D802F912F20E030E040E450E4D1
:100110000E94040118167CF46E2D7F2D802F912FE4
:1001200020E030E040E850E40E949F0088231CF467
:10013000A898979A02C0A89A979A369AB5CF40D0B5
:1001400008F481E00895E89409C097FB3EF4909587
:100150008095709561957F4F8F4F9F4F9923A9F0A0
:10016000F92F96E9BB279395F6958795779567952F
:10017000B795F111F8CFFAF4BB0F11F460FF1BC073
:100180006F5F7F4F8F4F9F4F16C0882311F096E906
:1001900011C0772321F09EE8872F762F05C06623B4
:1001A00071F096E8862F70E060E02AF09A95660F6D
:1001B000771F881FDAF7880F9695879597F9089526
:1001C000990F0008550FAA0BE0E8FEEF1616170668
:1001D000E807F907C0F012161306E407F50798F0D0
:1001E000621B730B840B950B39F40A2661F0232BE9
:1001F000242B252B21F408950A2609F4A140A69565
:100200008FEF811D811D0895DBDF08F48FEF0895C6
:100210000BD078C069D028F06ED018F0952309F083
:100220005AC05FC01124A2C07ED0A0F3959FD1F325
:10023000950F50E0551F629FF001729FBB27F00D94
:10024000B11D639FAA27F00DB11DAA1F649F6627E9
:10025000B00DA11D661F829F2227B00DA11D621F38
:10026000739FB00DA11D621F839FA00D611D221FF2
:10027000749F3327A00D611D231F849F600D211DD6
:10028000822F762F6A2F11249F5750408AF0E1F079
:1002900088234AF0EE0FFF1FBB1F661F771F881FC2
:1002A00091505040A9F79E3F510570F014C05EC0B8
:1002B0005F3FECF3983EDCF3869577956795B795AD
:1002C000F795E7959F5FC1F7FE2B880F911D9695D7
:1002D000879597F9089597F99F6780E870E060E047
:1002E00008959FEF80EC089500240A9416161706CF
:1002F00018060906089500240A9412161306140617
:1003000005060895092E0394000C11F4882352F079
:10031000BB0F40F4BF2B11F460FF04C06F5F7F4F31
:100320008F4F9F4F089557FD9058440F551F59F018
:100330005F3F71F04795880F97FB991F61F09F3FD2
:1003400079F087950895121613061406551FF2CFFB
:100350004695F1DF08C0161617061806991FF1CF4B
:1003600086957105610508940895E894BB27662772
:0C0370007727CB0197F90895F894FFCF90
:00000001FF
